:020000021000EC
:1090000000000120759301005D9301005F93010052
:10901000619301006393010065930100000000006B
:109020000000000000000000000000006793010045
:1090300069930100000000006B9301006D93010033
:109040006DB701006F9301003DBC01006F930100FB
:109050006F9301006F930100B9BA0100EDC50100E3
:109060006F9301006F9301006F9301006F930100F4
:109070006F9301006F9301006F9301006F930100E4
:109080006F930100F1A801006F9301006F9301003D
:109090006F9301006F93010079E901006F93010064
:1090A0006F9301006F9301006F9301006F930100B4
:1090B0006F9301006F9301000000000000000000AA
:1090C0006F9301006F9301006F9301006F93010094
:1090D0006F9301006F9301006F9301000000000087
:1090E0000000000000000000000000000000000080
:1090F0000000000000000000000000000000000070
:10910000000000000000000000000000000000005F
:10911000000000000000000000000000000000004F
:10912000000000000000000000000000000000003F
:10913000000000000000000000000000000000002F
:10914000000000000000000000000000000000001F
:10915000000000000000000000000000000000000F
:1091600000000000000000000000000000000000FF
:1091700000000000000000000000000000000000EF
:1091800000000000000000000000000000000000DF
:1091900000000000000000000000000000000000CF
:1091A00000000000000000000000000000000000BF
:1091B00000000000000000000000000000000000AF
:1091C000000000000000000000000000000000009F
:1091D000000000000000000000000000000000008F
:1091E000000000000000000000000000000000007F
:1091F000000000000000000000000000000000006F
:10920000354936480A1A02D0072291438D4634491F
:1092100034480A1A06D00722914381F309880222B2
:1092200082F3148830483149314A00F044F831481B
:109230003149324A00F03FF831483249324A00F0B1
:109240003AF832483249334A00F035F83248334967
:10925000334A00F030F833483349344A00F02BF8F1
:1092600033483449344A00F026F83448344900225F
:1092700000F02CF833483449002200F027F8334836
:109280003349091A082902DB002202604160314A91
:1092900090471F481F49884205D00268043003B434
:1092A000904703BCF7E700208646EC4600200021EB
:1092B000294A9047FEE7884207D0521A05D0037822
:1092C00001300B700131013AF9D17047884202D068
:1092D00002700130FAE770470000012000F800201A
:1092E0000000012000000120E0040200C82200204C
:1092F00038230020D0930100D093010024F6010010
:10930000E0040200C8220020C822002034F7010037
:1093100034F7010034F7010034F7010034F701009D
:1093200034F7010034F7010034F70100E0040200D3
:109330005005020038230020382300203823002065
:109340002431002024310020243100202431002049
:10935000243900209D930100A5CE0100FEE7FEE721
:10936000FEE7FEE7FEE7FEE7FEE7FEE7FEE7FEE7D5
:1093700000F002B8FFF7FCBF0F484FF00701884329
:1093800085460E4880470E48016841F4700101602F
:10939000BFF34F8FBFF36F8FFFF732BF09480A4902
:1093A0000A4A884207D0521A05D0037801300B7060
:1093B0000131013AF9D1704700000120A9B2010042
:1093C00088ED00E034F70100C8220020C822002008
:1093D0007047000007B5044B0093044A402300F097
:1093E00030F803B05DF804FBF1930100392300204D
:1093F0002DE9F84389461446B2B10F4B0F4E0325B1
:10940000002743F00108224609EB0701002004F081
:1094100049F80744241A48B933782BB14FF47A40FD
:10942000C047013D02D13570BDE8F8830123337098
:10943000002CE8D1F8E700BF40F7010038230020F6
:109440007047F0B595B01C46164608460D4601F02B
:10945000CCFD1A9B0D93CDE9086400242346082215
:1094600005A928460A948DF82C400C9401F0DAFDE9
:10947000079B0293069B03939DF814308DF81140CF
:1094800003F00302012A1DD1BDF81440059EC3F369
:10949000C203C4F383148DF81030A20008230EA970
:1094A000284601F0BFFDC6F3952608AB009322467F
:1094B00002AB0EA9304600F01DFB284601F099FDD5
:1094C00015B0F0BD022AF8D1BDF81640C3F3C203AF
:1094D000A4098DF810300827082C264628BF082636
:1094E0003B4632460EA9284601F09CFDA41B08AB62
:1094F00002AA31460EA8374400F060FB002CEBD1E5
:10950000DBE7037813F0040216D003F00303012B0A
:1095100003D0022B09D0012070470A68008802326C
:10952000C0F3831002440A60F5E70B6842880233F7
:1095300003EB92130B60EEE7104670472DE9F04FF6
:1095400087B000230446851C0DF107000F469046A6
:109550008DF8073001F060F8454806683E60D0E9B4
:109560000132134401339B1B824600F21C4600F576
:10957000836900F21447AB421BD30022B8F1000FFD
:1095800070D0052363F3070264F38912DAF8001040
:10959000DAF808309DF807000B4003330D444AF811
:1095A0002320CAF8005001F05BF8012007B0BDE8A5
:1095B000F08F0121304601F074FA484601F087FA35
:1095C000384601F084FADAF80400DAF808B00290BC
:1095D00000EA0B0003300AEB800002A9FFF791FFBD
:1095E000029B50BB0BEA03020AEB820203F1020C5E
:1095F000D2680392013303EA0B0B0AEB8B0B02F0E8
:109600000302012ACDF808C0DBF80C1022D0022A90
:1096100016D08346384601F05DFA10B1029BCAF8B5
:1096200004305946304601F03CFADAE9012313448C
:10963000DAF8002001339B1A9DE70BEA0300C9E723
:10964000BDF80E309B0903334FEA114B0CEB93032B
:109650000293DFE7BDF80C30C3F383134FEA114BDD
:109660006344F5E7062363F3070264F39F528DE733
:109670004C24002030B50A4C71B10A4A0A49121B29
:10968000D20800239A4201D1002030BD31F8235086
:10969000854202D00133F5E7034654F83300F4E77E
:1096A0009CF6010024F70100C8220020094B013973
:1096B00003EBC000032909D8DFE801F00A02040621
:1096C0000420704700797047407970470020704748
:1096D000022070479CF60100034BD3E90030C31A07
:1096E00058425841704700BF4C2400202DE9F043F8
:1096F00087B0FFF7F1FF0646002840F0FB807E4D63
:10970000C5F81804BFF34F8F6868AC68029020401A
:10971000033005EB800002A9FFF7F3FE029B18B1AE
:10972000D5F81824002A5FD004EA0302991C0133FB
:1097300005EB8202234005EB8303D268DB680493C8
:1097400002F00303022B0392029162D1BDF80E30A6
:109750006A484FEA9318B8F1500FC14628BF4FF03E
:10976000500969F38F1309F10801ADF80E3001F0CB
:109770000DFC0746002800F0A88001F036FC03A984
:1097800000230822384601F043FC029924EA01062E
:109790000136B600B14535D95FFA89F97EB3F6B224
:1097A000A9EB0609214003315FFA89F4B146544E12
:1097B00005EB810108234A46384601F029FC36B101
:1097C00009F1080322463146384601F021FC029B8C
:1097D00008F1030803EB98030293D5F81834002B23
:1097E0004BD1D5F810445BE02A689A4204D86A60ED
:1097F000304607B0BDE8F08304EA030088E740493B
:109800003446D7E72140033108234A4605EB81015E
:10981000DAE7012B59D1BDF80C303848C3F3831176
:10982000062928BF062161F3891302318900ADF8AA
:109830000C3001F0ABFB0746002846D001F0D5FB09
:109840000023082203A9384601F0E2FB0026BDF8F8
:109850000C20C2F38312B300964203F10803BCD27A
:1098600002994A1C21400331029205EB8101042236
:10987000384601F0CDFB0136E9E7384601F0B9FB87
:10988000FFF72AFF80F00100C6B2B1E7E3685B7919
:1098900023B1236839461B6820469847E3681C6853
:1098A000002CF3D1384601F0A4FB0DF107008DF830
:1098B000074000F0B1FED5F818340BB9029B6B607D
:1098C0009DF8070000F0CCFEDAE7D5F8104454B953
:1098D0000C4B0D480D49C01AC008000440F00200AE
:1098E00000F06EF8CCE7236820469B689847E36851
:1098F0001C68ECE700267BE74C24002088F601007A
:10990000582400209CF60100CCF6010064F7010009
:109910002DE9F74F284C80460F46924601A90122B7
:1099200018469B46D4F80890FFF708FE80B3019DC7
:109930000026A91C5E4506EB010233D100211F4819
:1099400001F084F880F310006A1C02EA090204EBBB
:109950008202000405EA0903033340EA1840D0609C
:1099600014F8232068F3C50204F8232034F82320D8
:1099700066F3891224F8232054F8232067F39F22EA
:1099800044F8232002F0F80242F0010204F82320F8
:1099900094F820341BB1FFF7A9FE0028FBD103B0D7
:1099A000BDE8F08F09EA020204EB82025AF8263081
:1099B000D3600136BEE700BF4C2400206828002099
:1099C00000231A46FFF7A4BF07B50123019201AA9D
:1099D000FFF79EFF03B05DF804FB07B5CDE9002358
:1099E00002236A46FFF794FF03B05DF804FB7FB5DE
:1099F000CDE90023089B0293099B03930A9B0493E0
:109A00000B9B05936A460623FFF782FF07B05DF8BC
:109A100004FB0000094A38B50123D2F8104482F84B
:109A200020341D4604B938BDE3685D7123682046C3
:109A30005B689847E3681C68F4E700BF4C2400208B
:109A4000037A052B10B50C460FD0437A23B1084A90
:109A50000849204601F08AF80749204601F086F8B7
:109A60002046BDE8104001F076B8002AF8D0F3E7B0
:109A7000AFF70100B4F70100D4F70100C38873B554
:109A800004460D4633B1144A00921449144A28463C
:109A900001F06CF8217A05291CD0637A4BB1A088BB
:109AA000FFF704FE0F4B104953F82020284601F021
:109AB0005DF8227A0D4BA08853F822600021FFF751
:109AC000D9FD0B4903463246284602B0BDE8704036
:109AD00001F04CB802B070BDAFF70100BFF7010054
:109AE000B7F701007CF70100B4F70100E4F70100CB
:109AF000D7F701002DE9F04385B01F460C9D0023E8
:109B000006460C46904695F80C902B73294638462D
:109B1000FFF7B4FFB8F1060F09D8DFE808F0041228
:109B2000181F283340003146284601F01FF8002254
:109B300029463846FFF784FF85F80C9005B0BDE84C
:109B4000F08322683146284601F010F8EFE7D4E9A7
:109B500000233146284601F009F8E8E7A36800939E
:109B60003146D4E90023284601F000F8DFE7E36836
:109B70000193A36800933146D4E90023284600F0FE
:109B8000F5FFD4E723690293E3680193A368009388
:109B90003146D4E90023284600F0E8FFC7E76369AF
:109BA000039323690293E3680193A368009331460A
:109BB000D4E90023284600F0D9FFB8E708292DE9A9
:109BC000F84F80460E4617461C463AD8002593F8B3
:109BD0000C901D7319461046FFF750FFDFF884A064
:109BE000DFF884B0AE422ED918F805205946204639
:109BF00000F0BCFF0135082DF4D11849DFF86CB036
:109C0000204600F0B3FF4FF0000A564520D918F85F
:109C10000A507E2D03D8284605F0AAF800B92E2553
:109C20002A465946204600F0A1FF0AF1010ABAF17E
:109C3000080FEAD1012221463846FFF701FF84F8D8
:109C40000C90BDE8F88F5146204600F08FFFD1E719
:109C50000349204600F08AFFE7E700BFAAF70100AA
:109C6000A8F70100A6F70100A0F70100ACF701007A
:109C7000C30710B507D4F0234008054A145C2340FD
:109C80001943115410BD0901C9B20F23F4E700BFF5
:109C9000A028002030B5094B1C78094B1968002317
:109CA0009C4202DC0022104630BD11F83350854240
:109CB00001EBC302F7D00133F2E700BF70280020A8
:109CC000B028002070B504460D46FFF7E3FF30B121
:109CD000436823B129462046BDE87040184770BD4F
:109CE000034B044819680022490800F090BA00BFED
:109CF000742800207828002010B5C0B2FFF7CAFFF2
:109D00000446007801F0CEFE63785A1E5342534158
:109D1000834208D1044BD3E90023134303D1BDE8A8
:109D20001040FFF7DDBF10BD9828002037B543086D
:109D3000364AD35CC2074CBF1B0903F00F0304462D
:109D40000D46042B36D8DFE803F003262D393D00FD
:109D500081B30121FFF78CFF00230DF107008DF87F
:109D6000073000F059FC0122A4F12003C4F12000C7
:109D7000274902FA03F322FA00F0034302FA04F43B
:109D8000D1E9002014430343C1E900439DF80700D3
:109D900000F066FC0EE0002918BF02212046FFF704
:109DA00067FF07E041B10321FFF762FF0121204671
:109DB000FFF788FF03B030BD0121EFE70029F9D19B
:109DC0000421EBE709B10321E8E7FFF751FF29463A
:109DD0002046FFF777FF0DF107008DF8075000F0E0
:109DE0001BFC0122A4F12003C4F12000084902FA5F
:109DF00003F322FA00F0034302FA04F4D1E900204D
:109E000022EA040420EA0303BEE700BFA0280020E2
:109E1000982800202DE9F041124E134F002433788A
:109E2000A34208DC114BD3E90023134318D0BDE84B
:109E3000F041FFF755BF3D6805EBC40815F8340045
:109E400001F030FE98F801104B1E594259410A1A90
:109E5000514215F834005141FFF768FF0134DEE745
:109E6000BDE8F08170280020B0280020982800204C
:109E7000092AF7B505460C4616463DD901F02EFDD8
:109E8000D8B11E4B1E481D601E4B1F4F1C701F4B30
:109E9000002110221E6004F0BFFF1D4B0020002196
:109EA000C3E90001013CE4B20326FF2C0BD1194A9F
:109EB0001948002100F0A0F903E001F0D7FC0028C8
:109EC000DFD003B0F0BD20B29DF806308DF80460FD
:109ED00005EBC00223F007038DF8063001A9937843
:109EE00015F830008DF805303A4601F001FD013CCF
:109EF000E4B20028D9D0E4E70720E2E7B028002048
:109F0000A028002070280020F99C0100742800205F
:109F100098280020159E010044F8010070B5084DF6
:109F2000084E00242B789C4201D3002070BD33687A
:109F3000012113F8340001F04FFD0134F2E700BFB6
:109F400070280020B028002073B5114D114E002458
:109F50002B789C4214D300230DF107008DF80730B5
:109F600000F05AFB0C4B00210020C3E900019DF8D2
:109F7000070000F075FB094800F061F902B070BD00
:109F8000336813F8340001F06BFD0134E0E700BFE3
:109F900070280020B0280020982800207828002071
:109FA0001FB50021039001AA44F20100CDE901117F
:109FB00000F004F805B05DF804FB000010B572B6BF
:109FC000FFF728FDFFF792FB0028FBD1104B114C47
:109FD0001149E41AE408240444F00100FFF7F0FCFE
:109FE0000E4B1B68DB0700D500BE0D4944F0020094
:109FF000FFF7E6FCBFF34F8F0A490B4BCA6802F428
:10A00000E0621343CB60BFF34F8F00BFFDE700BF9B
:10A010009CF60100CCF6010053F80100F0ED00E0E1
:10A020005FF8010000ED00E00400FA0549B152B10B
:10A03000531E1A4007D1826001608380C2601046BF
:10A0400070470E2070470920704710B58468C268B9
:10A050008388121B934208D3C26813400268D1540C
:10A06000C3680133C360002010BD0420FCE7826890
:10A07000C3689A420AD08268838813400268D35C1E
:10A080000B708368013383600020704705207047A0
:10A09000D0E90223D1E90201994208BF90422CBFC6
:10A0A00001200020704700002DE900480C4800F016
:10A0B0000AFC0C4BD3E9002312EB000B43F1000C1C
:10A0C000094BD3E900239C4508BF93455846614698
:10A0D00003D21BF180704CF10001BDE8008800BF85
:10A0E000D0220020B82800203029002037B50546AE
:10A0F0000C460A4801A900F018FC60B105704460E4
:10A1000001A9064800F03BFC18B1054800F0E0FB4F
:10A11000002003B030BD0420FBE700BF1C29002055
:10A12000D0220020194B1B782DE9304804461BB97A
:10A1300000252846BDE830880028F9D0037F03F0C9
:10A14000FF05002BF4D0FFF7AFFFD4E902239942BB
:10A1500008BF904215D3236903B92377D4E90530AA
:10A16000984721690029E3D0237F03F0FF05002BE6
:10A17000DED0D4E9022312EB010B43F1000CC4E959
:10A1800002BC2146024801F007F8D2E7C0280020AF
:10A1900070F8010013B5114B11491868019008239C
:10A1A0005822104800F0AEFB044698B90E4A0F48FA
:10A1B00001A900F079FA044660B901210B4800F0CA
:10A1C00065FB01230A4A0948194600F0CBFA094BFE
:10A1D00001221A70204602B010BD00BF6CF80100C9
:10A1E000C42800201C29002069A20100D0220020E0
:10A1F000FFFF7F00C02800203AB103685A614A1E61
:10A20000514251411961002070470720704738B50D
:10A21000037F04460D4683B98261FFF745FF42196B
:10A2200041F10003C4E90223236903B125612146FA
:10A230000020BDE83840FFF759BF002038BD00239B
:10A24000014603770120FFF751BF0000024B0021B8
:10A2500002201970FFF74ABFC0280020014800F013
:10A2600032BB00BFD02200202DE9F04F85B0074659
:10A2700000F014FB40B1594AD2E9003113F1807368
:10A2800041F10001C2E900310021384600F015FB20
:10A2900038B1534C236823B12068FFF743FF0023F4
:10A2A00023600121384600F008FB20B1FFF7FCFED7
:10A2B0004C4BC3E9000103A94B48494D4B4C4C4E54
:10A2C00000F06DFB002845D1DFF820A1444CDFF8F9
:10A2D00028B1504600F076FF2368002875D07BB186
:10A2E0002368D0E90201D3E90223994208BF9042D2
:10A2F0002DD223681B7F1BB12168504600F04CFF14
:10A30000504600F059FFD0E9026305460193FFF77C
:10A31000CBFE019BB6EB000863EB0109B8F1010F1E
:10A3200079F1000344DB334EB0453FD9FFF796FF88
:10A3300082194FF496030021584600F033FA0028A2
:10A340003ED1236813B9384600F004FA256005B001
:10A35000BDE8F08F0378012B1DD05BB1022B11D12A
:10A360004FF0000A204600F027FF002833D080F885
:10A370001CA0F7E741680B7F23B901230B77204628
:10A3800000F00AFF03A9184800F034FB03A916489F
:10A3900000F005FB96E741682B68994202D1002343
:10A3A0002B60EFE7204600F010FFEBE7AA68C0E75C
:10A3B0000021584600F077FA2846FFF7B3FE01E087
:10A3C0000D28F9D00023236083E7002BBFD1384646
:10A3D00000F0C4F9BBE701233370D3E7B8280020AD
:10A3E00038290020302900201C29002070F80100A5
:10A3F000C0280020FFFFB400D02200200648074AF2
:10A4000003780749D35C012213B1043002F076B817
:10A410000C3001F039BE00BFD8220020AC2900204A
:10A42000642900200648074A03780749D35C0122C3
:10A4300013B1043002F00EB80C3001F0CFBD00BFF4
:10A44000D8220020AC2900206529002037B50578E6
:10A45000012D05D0002D32D0022D25D003B030BD06
:10A46000037A13B9FFF7CAFFF8E743681A4C197863
:10A470002046FFF7EAFD80B18DF800500190174BA0
:10A4800068461B689847A168E368A2885B1A9A42ED
:10A49000E8D2134B01221A70E0E7A268E3689A42FF
:10A4A000F1D08DF80000EAE7C3688DF80050019301
:10A4B000FFF7A4FF094B68461B689847CEE7094998
:10A4C0000948FFF7D4FD10B9FFF7ACFFC6E7032337
:10A4D0008DF80030EEE700BF402900203C29002025
:10A4E000502900206529002054290020F0B51F467E
:10A4F000234B89B006461A600C4600293DD08A8855
:10A5000020480968FFF792FD002834D1A289A1688C
:10A510001D48FFF78BFD00282DD11C4D0FCD6C463B
:10A520000FC495E80F0084E80F0073690693337C2D
:10A53000174A18488DF81C70003318BF01238DF896
:10A540001430737C002B14BF0E2300238DF81530BC
:10A55000F3680293B36803933368019369467368A1
:10A56000009301F091F830B90B4B18703368013348
:10A5700001D0FFF743FF09B0F0BD0720FBE700BFA4
:10A580003C290020402900205429002088F801009F
:10A590004DA40100D82200205029002070B5084C9D
:10A5A000014608482678FFF762FD054636B10023CC
:10A5B0002370FFF723FF08B1FFF7F2FC284670BDB8
:10A5C000502900204029002010B501460E48FFF711
:10A5D0003CFD0446A8B90D480D4A0378D35C63B12D
:10A5E000043001F07FFF60B90A490748FFF73FFDDB
:10A5F00038B9BDE81040FFF715BF0C3001F038FD49
:10A60000F1E7204610BD00BF54290020D8220020C9
:10A61000AC2900206529002070B5EFF3108672B6D2
:10A620000C4A946801239CB993600B4B0B4DD3F8F3
:10A63000801029401160C3F88050D3F88410516015
:10A640004FF0FF32C3F88420047006B962B670BDC3
:10A650000370FAE76829002000E100E0FC06FFBD76
:10A66000084B9A6810B55AB150B9EFF3108172B621
:10A67000054A1C6814605C685460986001B962B651
:10A6800010BD00BF6829002000E100E0435882B0FF
:10A690003BB10023435043580193019B012002B07A
:10A6A00070471846FBE70000F8B5224B4679224D6B
:10A6B00043F82620214A224BF7009B1AEA19DB08AF
:10A6C00012791B0432B143F002001E49FFF778F9FA
:10A6D0000820F8BD02680C88C2F8084590F90420EB
:10A6E0008978002AA8BF02F1604CD4B2BABF04F046
:10A6F0000F0EDFF858C00CF5614C4FEA4111C9B29A
:10A70000B4BF0CF80E108CF8001352090121DFF8C9
:10A7100040C004F01F042F4401FA04F44CF8224016
:10A72000397145F83600084943F00300FFF748F94E
:10A730000020CEE77C290020742900209CF601002F
:10A74000DCF60100B6F80100D8F8010014ED00E0D5
:10A7500000E100E0036801221A60704703680122EB
:10A760005A60704773B501F15005AD000068ADB295
:10A770004FF480348C400026C0F80843C0F84843AA
:10A78000465101F5A8714559019522F07F42019D7E
:10A7900040F82120C0F844430BB1C0F8044302B094
:10A7A00070BD00002DE9F74F884699464FF480367A
:10A7B000036808F150058E404FEA880AAD00C3F8DF
:10A7C0004863ADB2C3F80863074603EB0A00D3F849
:10A7D00004154FF0000B22F07F44D0F84025C0F85C
:10A7E000401543F805B05B590093009B531A23F0C2
:10A7F0007F43012B0BD1244B4FF4806043F00103C6
:10A8000098473B6843F805B05B590193019B386852
:10A81000D0F80455C0F84463631B23F07F43012B39
:10A820001AD108F5A878184B013440F8284043F0B5
:10A8300001034FF4806098473B68D3F804359D428C
:10A8400008D13B680020C3F84463C3F8046303B035
:10A85000BDE8F08F0D20FAE78244C9F1FF19CAF86C
:10A860004045D0F80435E21A013A22F07F4209F55A
:10A870007F499145EED3002AE3D10134CAF840451F
:10A88000D0F804259342DBE7B0F801000368022208
:10A89000C3F8442309B1C3F8042370474FF482710D
:10A8A0000068FFF7F3BE4FF4803303FA01F1036849
:10A8B000C3F84813C3F8081370475031890089B2B0
:10A8C0000068FFF7E3BE0368D3F804057047000093
:10A8D00090F9043001215A0903F01F0301FA03F330
:10A8E0004032024941F82230704700BF00E100E0E9
:10A8F000024B034A1B681068184700BF7C290020E0
:10A900007429002010B561B1B2FBF3F403FB1424E9
:10A91000A4B244B9C0E9001484608281C381204696
:10A9200010BD0E20FCE70920FAE737B550E8013FDB
:10A930009DB2C48925448489A54228BF2D1B048962
:10A94000A54202BFBFF32F8F002207E0C5EA03052F
:10A9500040E80154002CE9D14FF001028DF80320AA
:10A960000193019B9DF803200B6002F0FF0322B1CD
:10A970000B880068184403B030BD1846FBE70A880E
:10A980004B889A4209D150E8012FC2EA024240E8BE
:10A990000123002BF7D1012070470020704737B505
:10A9A00050E8023F1FFAA3F5C488A54202BFBFF3D7
:10A9B0002F8F00220DE0C48925448489A54228BF39
:10A9C0002D1BC3EA054540E80254002CE8D14FF0A6
:10A9D00001028DF803200193019B9DF803200B6079
:10A9E00002F0FF0322B14B880068184403B030BD69
:10A9F0001846FBE70A884B889A4209D150E8022F93
:10AA0000C2EA224240E80223002BF7D1012070471E
:10AA10000020704701F01F024B090121914000EB1B
:10AA2000830000F01DB801F01F0301229A404B097A
:10AA300000EB8300D14300F029B84B0901F01F015E
:10AA400050F82300C84000F00100704750E8002F84
:10AA50000B4640E8003C9CF0000FF7D110467047D1
:10AA600050E8003F43EA010240E8002C9CF0000F50
:10AA7000F6D11046704750E8002F02EA010340E883
:10AA8000003C9CF0000FF6D11046704750E8003FA4
:10AA900003EA010240E8002C9CF0000FF6D11046BA
:10AAA000704750E8003F03EB010240E8002C9CF0A7
:10AAB000000FF6D11046704750E8003FA3EB0102AB
:10AAC00040E8002C9CF0000FF6D1104670470121A1
:10AAD000FFF7C6BF0021FFF7CEBF37B505460024FC
:10AAE0000DF107008DF80740FFF796FD2A686B68A7
:10AAF000116899420ED9481E106011F8014CEB689C
:10AB0000298A01FB0434AB6811791B1ADBB2994224
:10AB100038BF13719DF80700FFF7A2FD204603B070
:10AB200030BD37B5054600230DF107000C468DF802
:10AB30000730FFF771FD2A681368591C1160E96836
:10AB4000641A298AB4FBF1F41C709DF80700FFF722
:10AB500087FD03B030BD826810B504462AB1436951
:10AB60000168006998470023A36010BD0EB403B5C7
:10AB7000039921B104AB01AA019300F075F802B06A
:10AB80005DF804EB03B070470A2938B504460D465A
:10AB900002D10D21FFF7F8FFA3682268591CA160BC
:10ABA000D554D4E901329A4204D32046BDE8384056
:10ABB000FFF7D1BF38BD00002DE9F84F9946DDE918
:10ABC0000A431746824688460A460126BA420FD2F1
:10ABD0004E4538BF4E4613F0010B01D164B9002435
:10ABE0000125B9F1010F1AD909F1FF397D43F8E7C1
:10ABF000B2FBF7F20136E9E79B070ED5B9F1000F7A
:10AC00000CBF30252025A642EAD2013C29465046F9
:10AC1000FFF7BAFF002CF6D1E1E72025F3E7B8FBF8
:10AC2000F5F39F42E2D9DFF83C90B8FBF5F35046CC
:10AC300019F8031005FB1388FFF7A6FFB5FBF7F320
:10AC4000BD4207D2BBF1000F02D00CB1A64203D324
:10AC5000BDE8F88F1D46E8E720215046013CFFF78C
:10AC600093FFF2E7EAF801002DE9F74F0546174692
:10AC70008846002900F0308118F8011B49B92B7B68
:10AC8000002B00F02981284603B0BDE8F04FFFF704
:10AC900062BF252940F0C080002698F800302D2B97
:10ACA000424608F1010823D0302B24D02B2B25D08D
:10ACB00000242A2B02F1010123D13B681A1D1B68D5
:10ACC0003A601C440A4613782E2B26D101324FF0ED
:10ACD0000009104610F8011BA1F1300CBCF1090F5E
:10ACE0001DD80A2303FB0913A3F130090246F0E73C
:10ACF00046F00106D1E746F00206CEE746F004062C
:10AD0000CBE711F8013CA3F130000928DBD80A2277
:10AD100002FB0434303C0A46CBE74FF0000912F83E
:10AD2000011B01F0FB0068289046F8D069290ED07D
:10AD30004AD8582964D006D825296DD098F8003013
:10AD4000002B99D19BE7632962D06429F6D13A6838
:10AD5000D2F800A0111D8AEAEA723960A2EBEA7209
:10AD60004FF0010B092A5BDCCB4538BFCB462CB139
:10AD7000BAF1000F01DB720700D5013CB30702D521
:10AD8000B9F1000F04D0F00702D4002C4ED10024FA
:10AD9000BAF1000F52DACAF1000A2D212846FFF756
:10ADA000F3FE06F00302022A05D1B9F1000F02D129
:10ADB000002C47D10024CDE900464B460A225146DB
:10ADC0002846FFF7F9FEB9E773294CD014D870294B
:10ADD000B4D13B681A1D3A60302128461C68FFF741
:10ADE000D3FE78212846FFF7CFFE00220823CDE9C5
:10ADF000003221461022E3E775292BD078299DD116
:10AE000039680A1D3A60CDE900464B46102228E019
:10AE10003B681A1D19783A602846FFF7B5FE8DE7A2
:10AE20000A230BF1010BB2FBF3F29BE7A345AFD270
:10AE300020212846013CFFF7A7FEA6E77107B0D501
:10AE40002B21ABE7A345B6D230212846013CFFF7C2
:10AE50009BFEADE73968CDE900460A1D3A604B46D6
:10AE60000A220968ACE73B681A1D3A6016F0010631
:10AE7000D3F800A020D1BAF1000F03D0504603F060
:10AE8000FEFF0646B44200D9C4B90AF1FF3A1EE0FB
:10AE900028460136FFF778FE1AF806100029F7D188
:10AEA000A642BFF44BAF002C3FF448AF2021284608
:10AEB000013CFFF769FEF3E70026EDE72021284675
:10AEC000013CFFF761FEDDE72846FFF75DFE1AF85B
:10AED000011F0029F8D131E703B0BDE8F08F2DE95B
:10AEE000F047B0F806904479D2F800A09DF8208091
:10AEF00009FB04F4043C06460AEB0300A0420F469B
:10AF000088BFA4EB030A191DC2F800A0B1FBF9F534
:10AF100009FB15114DB9A9EB0104544528BF54464E
:10AF2000BAF1000F04D1BDE8F0873668013DF1E7C2
:10AF300004317B1970182246B8F1000F0ED001467B
:10AF40001846AAEB040A03F03EFFD14525443668B3
:10AF50004C464FF0000128BF5446E1E71946F0E7A0
:10AF6000F8B546790146721E0546002393422D68C6
:10AF700003D30024A64202D8F8BD0133F6E70F68D8
:10AF80002846FFF7CEFD01343946F3E72DE9F843B3
:10AF9000068ACD1C0746FFF7A0FD043E3544044653
:10AFA000B5FBF6F5F0B14FF48073EDB28380C68047
:10AFB000013D076081464FF00008A84512D238468F
:10AFC000FFF78BFD064648B163790133637108F1E1
:10AFD0000108C9F8000007608146EEE72046FFF748
:10AFE000BFFF34462046BDE8F88301210430FFF757
:10AFF00058BD10B5012104460430FFF75DFD10F087
:10B00000FF0F04D12046BDE81040FFF7A9BF10BDD7
:10B010001FB503920022009203AAFFF760FF05B05C
:10B020005DF804FB1FB503920122009203AAFFF70B
:10B0300056FF05B05DF804FB33DF704741DF704712
:10B04000064B10B500241C70054B1C60BFF35F8FCE
:10B050000449054800F08AF8204610BD89290020DF
:10B060008C290020FCF801008029002007B500236E
:10B070000DF107008DF80730FFF7CEFAF1EE103A28
:10B0800023F09F03E1EE103ABFF35F8F094B40229C
:10B09000C3F884219DF80700FFF7E2FA03F052FCA1
:10B0A00020B1FFF7CBFF03B05DF804FB20BF40BF2A
:10B0B00020BFF8E700E100E070B5264C054601210D
:10B0C0002046FFF7C3FCBFF35F8F264638B9042D37
:10B0D0000AD0214B1A781AB1BFF35F8F206070BD80
:10B0E0001E4A157001221A701D4C1C4D6368BBB9B5
:10B0F000FEF790FCFEF7FAFA0028FBD1174B1B78FD
:10B10000023B012B14D8BFF34F8F1649164BCA6868
:10B1100002F4E0621343CB60BFF34F8F00BFFDE743
:10B120001B682878984788B1204600F029F8DDE7A9
:10B1300003F008FC08B1FFF77FFF4FF080430122C6
:10B14000C3F80025BFF34F8F20BFFDE7BFF35F8F2C
:10B150003060C4E78C29002089290020882900203C
:10B160008029002000ED00E00400FA050B684A6821
:10B170004360934208BF0023016008BF43607047EB
:10B18000436843B10268916852680B44934243603C
:10B1900004BF00234360704770B5446806460D46FF
:10B1A000206818B1B3682946984718B923682B60FE
:10B1B000256070BD2468F3E74368186808B1026829
:10B1C0001A6070474368186870474368186800B988
:10B1D0007047884203D102681A6001207047034615
:10B1E0000068F4E710B50D49A1F59472914201D8B9
:10B1F00000200FE08B1ADB1003EBD3735B1002EB24
:10B20000C30452F83330834205D802D204F1080255
:10B21000ECE7606810BD2146E8E700BF58FA01007E
:10B2200008B5FFF7DFFF024B002808BF184608BD2E
:10B230001AF901000C4B1B78062B10D10B4B1B6825
:10B240001A070CD10A4B186800F0F003302B08D015
:10B2500000F0E000A0F14003584258417047002040
:10B2600070470120704700BFE00F00F0E40F00F0CE
:10B27000E80F00F0094B1B78062B0CD1084B1B681C
:10B280001A0708D1074B186800F0F000A0F130034E
:10B290005842584170470020704700BFE00F00F04F
:10B2A000E40F00F0E80F00F008B5FFF7C3FF28B186
:10B2B0007D4B7E4A1B68C3F304231360FFF7DAFF5C
:10B2C00010B17B4B7B4A1A60FFF7B4FF28B17A4B71
:10B2D0007A4A1B68C3F342331360FFF7CBFF20B1F8
:10B2E000774AD36823F08073D360FFF7A3FF40B1A0
:10B2F0004FF080430022C3F80C21C3F81021C3F89B
:10B300003825FFF7B7FF10B16E4B03221A60FFF725
:10B31000B1FF40B16C4B05221A6001229A670022EE
:10B320009A603F225A60694B1B78062B50D1684BBC
:10B330001B6819074CD1674B1B6803F0F003502BB7
:10B3400046D14FF08052644BD2F80414C3F8201554
:10B35000D2F80814C3F82415D2F80C14C3F8281531
:10B36000D2F81014C3F82C15D2F81414C3F8301501
:10B37000D2F81814C3F83415D2F81C14C3F84015C9
:10B38000D2F82014C3F84415D2F82414C3F8481591
:10B39000D2F82814C3F84C15D2F82C14C3F8501561
:10B3A000D2F83014C3F85415D2F83414C3F8601529
:10B3B000D2F83814C3F86415D2F83C14C3F86815F1
:10B3C000D2F84014C3F86C15D2F84424C3F87025A1
:10B3D000FFF730FF28B1414B414A1B6803F04F0390
:10B3E0001360FFF727FF48B14FF08043D3F80024E4
:10B3F000D20744BF6FF00102C3F80024394B1B6829
:10B40000062B08D1384B1B68062B01BF374A13683F
:10B4100043F480631360364AD2F8883043F47003F3
:10B42000C2F88830BFF34F8FBFF36F8F4FF01023F8
:10B43000D3F80022002A03DBD3F80432002B2FDAE2
:10B440002C4B0122C3F80425D3F80024002AFBD09A
:10B450004FF010221521C2F80012D3F80024002A60
:10B46000FBD04FF010231522C3F80422214B1A46BB
:10B47000D3F800140029FBD00021C3F80415D2F83A
:10B480000034002BFBD0BFF34F8F19491A4BCA6809
:10B4900002F4E0621343CB60BFF34F8F00BFFDE7C0
:10B4A000164B174A1A6008BD2403001040350140AE
:10B4B00074C007400DF0ADBA440200103C050040D6
:10B4C000F0ED00E0A005004010560040E00F00F055
:10B4D000E40F00F0E80F00F000C000405802001038
:10B4E000E40E004030010010340100103C17004011
:10B4F00000ED00E000E001400400FA05EC2200202D
:10B500000090D0031420704738B5074C051E04F195
:10B51000080318BF1C4623682BB11A6822605B68B9
:10B5200028469847F7E738BD9829002020B9054BF1
:10B5300001225A70FFF7E8BF012802D1014A90703A
:10B54000F8E770479029002020B9034B01225A7078
:10B55000FFF7DABF704700BF9029002038B50B4CC9
:10B56000237883B90A486360A3602361E36000F035
:10B57000D1F8054603F0E6F908B900F0D9F801233F
:10B580002370284638BD8525FBE700BF90290020A1
:10B590002DB5010037B50B4C00230DF107008DF8D8
:10B5A0000730FFF739F8E368013BE360E56815B958
:10B5B00000F0D0F8A5709DF80700FFF751F803B030
:10B5C00030BD00BF90290020012813B509D018B163
:10B5D00003281CD002B010BD0F4B0122C3F88020FD
:10B5E000F8E70E4C00230DF107008DF80730FFF748
:10B5F00013F823780BB9FFF7B1FFE3689DF8070054
:10B600000133E3600123A370FFF72AF8E2E700F0BB
:10B610008FF8FFF7BFFFDDE700E100E09029002091
:10B620001FB503788DF800304368019383688DF867
:10B630000830C3680393054A054B684653F8213028
:10B6400052F82110984705B05DF804FBA4290020AA
:10B65000A82900201FB503788DF8003043680193B6
:10B6600083688DF80830C3680393054A054B684624
:10B6700053F8213052F82110984705B05DF804FBCB
:10B68000A4290020A8290020F0B5184B077891F8CC
:10B690001DE043F82720164B16460A6943F8272079
:10B6A000144B03F807E00C4684460FCC89B06D4676
:10B6B0000FC594E80F0085E80F000497BEF1000F56
:10B6C0000AD0002E0C4A694608BF32460CF104002D
:10B6D00000F0FAFD09B0F0BD002E084A694608BF27
:10B6E00032460CF10C0000F0BFFBF3E7A829002064
:10B6F000A4290020AC29002021B6010055B6010084
:10B7000000F18040002382B0036003680193019B35
:10B7100002B07047054A13792BB90121106093716B
:10B720009180184670478520704700BFB0290020DF
:10B73000074B1A68D2075FBFC02283F8002301229B
:10B740001A604FF080430022C3F81825704700BFED
:10B7500000E100E0044B01221A604FF08042D2F871
:10B760001834DB03FBD470470C000040244B1B68EB
:10B7700010B573B14FF48070FFF7C2FF4FF08043F4
:10B780000122C3F808231F4B587910B95A711B685E
:10B7900098471D4B1B6863B14FF48270FFF7B0FFF1
:10B7A0004FF080430222C3F80823164B01201B6888
:10B7B0009847164B1B6863B14FF48870FFF7A0FFE2
:10B7C0004FF080431022C3F808230E4B02201B6861
:10B7D00098470F4B1B6893B10E4B00221A604FF431
:10B7E0008670FFF78DFF4FF080430821C3F80813E0
:10B7F000044B03209A71BDE810401B68184710BD28
:10B8000000010040B0290020040100401001004068
:10B810000C010040340C004000F1804000F5C040B5
:10B82000002382B0036003680193019B02B070475C
:10B83000800000F1A040D0F8003723F44033C0F876
:10B840000037D0F8003743EA0141C0F800177047CD
:10B85000054B4FF0FF32072843F8202084BF1B1808
:10B8600083F84820704700BFB829002010B5174C56
:10B8700094F8583043BB04F130032021FF220139F2
:10B8800011F0FF0103F8012BF9D1C8B2FFF7E0FF77
:10B8900001310C29F9D1042200210D4803F0BCFA32
:10B8A0000C4BC02283F8062340221A604FF4BE706E
:10B8B000FFF7B2FF084B4FF00042C3F80423012307
:10B8C00084F85830002010BD0820FCE7B82900207B
:10B8D0000C2A002000E100E000600040034B93F8D8
:10B8E0005800003018BF0120704700BFB829002061
:10B8F000F0B5374B1C1894F93040002C1C4664DA24
:10B900008D78C5F34005002D0BBF082300230C26BE
:10B910000826B34201D10420F0BD54F8237001374A
:10B920003FD1261844F8232086F8303015B9E218A4
:10B9300082F848008A78550713D4D60733D5820099
:10B9400002F1A042D2F8005725F00205C2F80057D4
:10B95000204EC50800F007070122BA40775D3A4340
:10B9600072558A780D7812F0020225D09B0003F1FF
:10B97000804303F5C0430202D3F8101521F4473188
:10B9800021F44071C3F810152D04D3F8101502F4FA
:10B99000F85205F440352A430A43C3F81025002025
:10B9A000BAE70133B5E74D7800F5E0724FF0A046F5
:10B9B000AD0046F82250CBE7083B234493F85010E3
:10B9C00041EA851583F85050E9E70820A4E700BF55
:10B9D000B82900200C2A002038B51F4C251895F9ED
:10B9E0003020072A17DD224492F8481089090329DC
:10B9F0000CD14FF0A043D3F81035C34013F0010F22
:10BA000008BF0221BDE83840FFF712BF012914BF6B
:10BA100003210221F6E7D3B2072B1CD8930003F1D0
:10BA2000804303F5C043D3F8100540F00100C3F88C
:10BA3000100502F14000800080B2FFF7EDFE51B129
:10BA400095F9303054F823302BB1012303FA02F278
:10BA5000024BC3F8042338BDB82900200060004021
:10BA60000E4B034493F93020072A02DD0021FFF733
:10BA7000DFBED3B2072B10D8930003F1804303F548
:10BA8000C043D3F8101521F00101C3F810150123AC
:10BA900003FA02F2024BC3F808237047B8290020CA
:10BAA000006000404FF0A043D3F8103523FA00F0B7
:10BAB00000F00100704700002DE9F04F85B0002430
:10BAC0005A4D01944FF48072012102F1804303F535
:10BAD000C04390B21B68012B06D1D5F804330B424A
:10BAE00002D0FFF799FE0C430432B2F5907F4FEA83
:10BAF0004101EAD14E4B1B68012B0AD14FF4BE70B5
:10BB0000FFF78AFE4FF0A04344F00044D3F810350D
:10BB1000019314F0FF0F1AD0464F0025012634423E
:10BB200010D0AB0003F1804303F5C043D3F81005F8
:10BB3000D3F8101557F8253023B1C1F30141C0F3F4
:10BB4000042098470135082D4FEA4606E7D1002C1E
:10BB500064DA00224FF0FF33CDE90223354D01278F
:10BB60004FF0000A344E54464FF0A04816F9012B0E
:10BB7000531C46D0D2B222F0C0094FEAD90104A822
:10BB8000084402F0070310F804CC07FA03F31CEA98
:10BB9000030F36D005EB090C92099CF930C055F81B
:10BBA0002CB0BBF1000F0AD1032A2AD10DF1080EE7
:10BBB0001EF801C04CEA030C0EF801C001E0032A94
:10BBC000F4D009F5E07110F80C0C58F82110184267
:10BBD000C1F3014105D0022913D1032A0BD111462B
:10BBE00004E003290DD1032A05D102214846FFF7BD
:10BBF0001FFE0134E4B2BBF1000F02D011464846EB
:10BC0000D8470AF1010ABAF1040FAFD134B14FF0AD
:10BC1000A043019AD3F81035934202D105B0BDE894
:10BC2000F08F0193029B03939AE700BF00600040EE
:10BC30007C610040B8290020082A0020014B1B68C5
:10BC4000184700BF142A00200E4B984237B50D4606
:10BC500002D0002003B030BD00230DF107008DF8A5
:10BC60000730FEF7D9FC084B1C7914B901221D607E
:10BC70001A719DF80700FEF7F3FC002CE9D01120A3
:10BC8000E8E700BF00200040142A002000234350B2
:10BC900082B043580193019B02B070470A4610B529
:10BCA0004FF48E71FFF7F2FF136A9168C95C136A53
:10BCB00001331362C0F81C1510BD024608B54FF4DD
:10BCC00092710068FFF7E2FF4FF484711068FFF78C
:10BCD000DDFF136801221A6008BD8B690A4610B5A2
:10BCE0004FF4847123B9FFF7D1FFD0F8183510BD98
:10BCF000FFF7CCFF536AD168D0F81805C854536ACF
:10BD000001335362F3E700001FB501238DF80030C3
:10BD1000044BCDE90110D3E900126846904705B005
:10BD20005DF804FB1C2A002030B54D4AD2F80433DC
:10BD300013F4007F85B015464FD0D2F82431002B84
:10BD40004BD04FF492711046FFF7A0FF4FF40173F0
:10BD5000C2F80833434B93F8291009B90121516007
:10BD60003F4902228DF80020D1F88024C1F88024B8
:10BD700003929A690292DA6801920022C3E90622CC
:10BD80006846D3E9001290473548D0F81C315BB1C2
:10BD900034494A690B6A9A420A464BD991F82830CD
:10BDA000002B47D1FFF77AFF2D4AD2F8443193B1E7
:10BDB0004FF4A2711046FFF769FF2A4B93F8291040
:10BDC00009B1012111609A692AB100229A61586A69
:10BDD000D968FFF799FF05B030BDD5F804335B078C
:10BDE000D2D5D5F80831002BCED01E4C1C482146A8
:10BDF000FFF773FF636AA2699A422346C4D1E269DE
:10BE0000E1684AB12369E3600023606AA261E361EB
:10BE10006362FFF779FFB7E794F829200AB9012296
:10BE20006A600F4A4FF40170C2F8080300229A6159
:10BE3000586AEEE74FF48E710948FFF727FF536900
:10BE4000002BB1D051690291002391688DF8003028
:10BE5000019153616846D2E900139847A4E700BFF7
:10BE6000002000401C2A00202DE9F843564F047999
:10BE700091462C2202FB0472064692F82A200D46B7
:10BE8000002A40F09A8051490068FFF7DDFE8046A5
:10BE9000002840F0958029683368481C0BD04FF08B
:10BEA000A04001228A40C0F8082501F5E0724FF059
:10BEB000030C40F822C06868421C1FBF00F5E07206
:10BEC0004FF0A04C4FF0000E4CF822E0AA6995F814
:10BED00014C0C3F824256A7DBCF1010F4CEA0202AC
:10BEE000C3F86C25C3F81405C3F80C151DD1AA6856
:10BEF000511C1FBF02F5E0714FF0A0404FF0000C45
:10BF000040F821C0E968481C0BD04FF0A04C01203C
:10BF10008840CCF8080501F5E0704FF0030E4CF8AE
:10BF200020E0C3F80815C3F810252C236343FA1842
:10BF3000C2F804902A69FA50B9F1000F2AD04FF4E0
:10BF40008E7130682D7FFFF7A1FE30684FF4A2712B
:10BF5000FFF79CFE32681E4BC2F80433120B51B23D
:10BF60000029A8BF01F160404FEA4513BABF194844
:10BF700002F00F0500F56140DBB2B4BF435580F815
:10BF8000003302F01F02012303FA02F24909124BA7
:10BF900043F8212033680422C3F800252C2303FB37
:10BFA00004730022C3E9062283F829205A61012282
:10BFB00083F82A204046BDE8F8834FF00808F9E7E7
:10BFC0004FF01108F6E700BF1C2A002029BD010030
:10BFD0008000020014ED00E000E100E02DE9F84FE0
:10BFE000224F06794FF02C0909FB067480466569DB
:10BFF000002D38D16261A16025624FF48E71006816
:10C0000084F82850FFF742FED8F80000012383602F
:10C010002146FFF743FE6368A1469BB9D8F800A00C
:10C02000D4F814B0236A9B4512D8D8F80020D2F86F
:10C030001C31002BFBD00123D3602C2303FB0673A0
:10C0400000225A612846BDE8F88F94F8283043B999
:10C05000DAF81C31002BF8D049465046FFF71EFE97
:10C06000E0E70F25E9E71125ECE700BF1C2A0020D7
:10C070000379044A2C2101FB03235869003018BFBF
:10C08000012070471C2A00202DE9F843394E05791C
:10C090002C2303FB056307465C6824B103684FF457
:10C0A0000170C3F808032C2303FB0563986950B1A2
:10C0B000D86900283ED024B13B684FF40172C3F820
:10C0C0000423112433E09A61D9605862D8612C238B
:10C0D00003FB056393F829301BB910B93846FFF705
:10C0E000ECFD4FF02C0909FB05683868D8F80430DE
:10C0F000002B34D14FF4A271FFF7C8FDC146386858
:10C10000D0F82431D0F80821D0F84441B2B90CB9A4
:10C11000002BF4D02C2202FB05650022AA6123BB70
:10C120002CBB95F829103B680122B1B11A6020465A
:10C13000BDE8F8831961DA610120C8E7002BE9D175
:10C14000002CE7D14946FFF7C8FDD8F82430D8F8CD
:10C1500018209A42D3D82346DCE75A60E7E74FF429
:10C160000173C0F804330024E1E70324DFE70F2460
:10C17000DDE700BF1C2A00200023435082B0435853
:10C180000193019B02B070471FB501238DF8003069
:10C19000044BCDE90110D3E900126846904705B081
:10C1A0005DF804FB482A00207FB5454AD2F8246197
:10C1B000002E63D010464FF49271FFF7DDFF02238B
:10C1C0008DF80030D2F88034C2F880340393D2F86E
:10C1D0003C3502933B4BDA6801920022C3E9062208
:10C1E0006846D3E900129047354AD2F844317BB112
:10C1F0004FF4A2711046FFF7BFFF324B996939B176
:10C200000021C3E90611D968D2F83C05FFF7BCFF4D
:10C210002B4AD2F82031B3B14FF490711046FFF79A
:10C22000ABFF0123D360274B596961B1D2F84C159C
:10C230000291002299688DF8002001915A616846A8
:10C24000D3E9001290471E4AD2F85831A3B14FF4F7
:10C25000AC711046FFF790FF1A4B596961B1D2F8E3
:10C260004C150291002299688DF8002001915A61C5
:10C270006846D3E90012904704B070BDD2F810317F
:10C28000002BB1D04FF488711046FFF775FF0D4BAE
:10C29000D2F83C0599698842A6D1DC69D96864B1B5
:10C2A000D2F8005225F02005C2F800521A699C61AC
:10C2B000DA60DE61FFF768FF96E79C61FAE700BF8E
:10C2C00000200040482A00202DE9F8435C4F067901
:10C2D0009146242202FB0672044692F820200D4665
:10C2E000002A40F0A78057490068FFF7ADFC804660
:10C2F000002840F0A28029682368481C0BD04FF02A
:10C30000A04001228A40C0F8082501F5E0724FF0F4
:10C31000030C40F822C06868421C1FBF00F5E072A1
:10C320004FF0A04C4FF0000E4CF822E0AA6995F8AF
:10C3300014C0C3F824256A7DBCF1010F4CEA020247
:10C34000C3F86C25C3F80C15C3F814051DD1AA68F1
:10C35000511C1FBF02F5E0714FF0A0404FF0000CE0
:10C3600040F821C0E968481C0BD04FF0A04C0120D8
:10C370008840CCF8080501F5E0704FF0030E4CF84A
:10C3800020E0C3F80815C3F8102524237343FA18D6
:10C39000C2F804902A69FA50B9F1000F39D04FF46D
:10C3A000887120682D7FFFF7E7FE4FF490712068B9
:10C3B000FFF7E2FE4FF492712068FFF7DDFE4FF4C5
:10C3C000A2712068FFF7D8FE20684FF4AC71FFF728
:10C3D000D3FE22681C4BC2F80433120B51B2002961
:10C3E000A8BF01F160404FEA4513BABF174802F0F9
:10C3F0000F0500F56140DBB2B4BF435580F8003350
:10C4000002F01F02012303FA02F24909104B43F81C
:10C41000212023680822C3F80025242303FB067388
:10C420000022C3E906225A61012283F820204046F7
:10C43000BDE8F8834FF00808F9E74FF01108F6E778
:10C44000482A0020A9C101001003420014ED00E0B9
:10C4500000E100E001F06043B3F1005F2DE9F0413D
:10C46000074638D11E4B0679242505FB063598462C
:10C470006C69002C31D16A61A96000684FF4907139
:10C48000FFF77AFE4FF4AC713868FFF775FE3B6832
:10C490006A69A968C3F84415C3F8482501229A605F
:10C4A0006A68AAB9D3F82021D3F858411AB9002CE8
:10C4B000F8D00F2407E0002CFBD10122DA60D3F87A
:10C4C0005821002AFBD0242303FB06860023736136
:10C4D0002046BDE8F0811024FAE71124F8E700BFF8
:10C4E000482A00200379044A242101FB03235869C8
:10C4F000003018BF01207047482A0020F8B501F02D
:10C500006043B3F1005F04460F465ED10379304DBE
:10C51000242101FB0351486820B121684FF40476BF
:10C52000C1F80863242101FB03539E6956B1D96900
:10C53000002939D020B123684FF40472C3F80423D2
:10C54000112030E09A61DF60DE614FF4887120686D
:10C55000FFF712FE4FF4A2712068FFF70DFE23686B
:10C56000C3F83475C3F8382516BB01221A60217947
:10C57000242202FB015252680ABBD3F81041D3F8BF
:10C580004421D3F82401144302D10028F5D02246D7
:10C59000242303FB01550023984218BF03209A422D
:10C5A000AB6118BF0F20F8BD1F61DA610126CCE72F
:10C5B000D3F8002242F02002C3F80022D7E74FF45C
:10C5C0000472C3F804230020EDE71020EBE700BF5E
:10C5D000482A002000F1804000F5E040002382B0AE
:10C5E000036003680193019B02B07047F0B5534BA1
:10C5F000534C1B6885B0002B3DD04FF4827094F8EB
:10C600002E20FFF7E7FF2AB394F82F3013BB4D4BD2
:10C610001B68002B33D04FF48070FFF7DBFF94F8DA
:10C620002D20638B91B28B424ED95B1A21899BB22C
:10C630006383CB1A616801EB4301434BC3F82C16AB
:10C64000C3F830264FF48270FFF7C4FF3F4B01223E
:10C650001A6014E0636802932389ADF80C30E36834
:10C6600000218DF8041023BB2374236801A8984788
:10C67000002384F82F3094F82E30002BC7D1344B90
:10C680001B685BB14FF48870FFF7A4FF002323748D
:10C6900002238DF8043001A8236898472D4B1B68AE
:10C6A00013B34FF48A70FFF795FF0023237405B08E
:10C6B000F0BD208B608363602081E160002AD4D1CB
:10C6C000214B01221A60D0E7BCD1E368012184F834
:10C6D0002F103BB1002161831B49C1F82C36C1F8F2
:10C6E0003026AFE76383ADE766694FF00047012569
:10C6F000002EDCD0B6FA86F227FA02F34632920018
:10C7000026EA030602F1804303F5E0431B68002B91
:10C71000EED01046FFF75EFFA2F58C72D30882F0D0
:10C720000402C2F380028DF808308DF804508DF8B1
:10C730000920236801A89847DAE700BF0471004088
:10C740006C2A00200071004000700040047000401E
:10C75000107100401471004038B51E4B044693F828
:10C760002C00A8BB1C4A19602178C2F8F01561782A
:10C77000C2F8F415E5781874012183F82C1083F8B9
:10C780002D00586183F82F0083F82E506FF000437E
:10C79000C2F808334FF48270FFF71CFF4FF480702B
:10C7A000FFF718FF4FF48A70FFF714FFA3780B48C8
:10C7B0005B01DBB280F80733802303600223C2F8F9
:10C7C00004330DB1C2F80413C2F80015002038BDBF
:10C7D0000820FCE76C2A00200070004000E100E027
:10C7E0002A4B1A7C70B502F0FF05002A4BD10A795A
:10C7F000012A9CBF264CC4F8005500F10C0503EB40
:10C800004504247924B993F82D40013483F82D4050
:10C8100003EB4503CC790D7A8E781C715D714B78F2
:10C8200036021B0106F4E06603F0300333430E7852
:10C8300006F003063343CE78360306F480563343BE
:10C84000160406F4E02633434E798979360506F45A
:10C8500080160906334301F080710B430C4901EB4C
:10C860000016000100F1804000F5E040012AC6F802
:10C870001835C0F81455C0F8104502D80123C1F886
:10C880000035002000E0112070BD00BF6C2A0020A0
:10C8900000700040264A274B70B505461220C2F8AA
:10C8A00008031C7C022C03D1C2F80403112070BDC4
:10C8B000187C01281DD1D86818B10223C2F80433AE
:10C8C000F4E7DD60198393F82E3063B91A4A1368D0
:10C8D000002BFCD04FF48070FFF77CFE144BC3F8A4
:10C8E0002C56C3F83016124B0222C3F80423002042
:10C8F000DDE7022093F82E40C2F804030126002051
:10C900001E745D601981D8603CB1598393F82D3055
:10C91000C2F82C56C2F83036C9E7C2F82C564FF48C
:10C920008070C2F83016FFF755FE20461660BEE74D
:10C93000007000406C2A002000710040084A137CFF
:10C94000DBB2012B09D192F82E0018B1054A002064
:10C9500013607047044A136070470820704700BF97
:10C960006C2A00200070004004700040F0B51B4F9E
:10C970008BB207EB001443EA0243C4F81C35184B92
:10C9800040005C6900F1010C4FF0004611F5006FAA
:10C9900026FA0CF64FF0800505FA00F50BBFB443FC
:10C9A00034435C615C610CBFC7F80853C7F804539B
:10C9B00040244FF000455969844025FA00F040F2C8
:10C9C000FF75AA42054A0BBF814301435961596172
:10C9D0000CBFC2F80843C2F80443F0BD0070004029
:10C9E0006C2A0020124B1A7C10B5F2B900F10C0130
:10C9F00003EB4102127922B193F82D20013A83F81A
:10CA00002D2003EB410300249C80030103F18043AC
:10CA100003F5E04340F2FF72C3F814450549C3F83B
:10CA20001045FFF7A3FF204610BD1120FCE700BF13
:10CA30006C2A002000F8FFFF0020704748B9012A47
:10CA400002D1012907D00246012905D051B102299E
:10CA500005D0072070470E22044B1A707047034B15
:10CA60005A707047014B9A70704700BF9C2A002093
:10CA700010B5044690B9FEF745FD800000F1A040D6
:10CA8000D0F8003723F44033C0F80037D0F800372F
:10CA900043F40033C0F80037204610BD0624FBE7FE
:10CAA00008B5012202210020FFF7C8FF08B10728BE
:10CAB00010D1072202210120FFF7C0FF08B107288B
:10CAC00008D100210A220846FFF7B8FF10B1072855
:10CAD00008BF002008BD00000388102B10B502D04D
:10CAE000112B1ED010BD1A4C2168B1B90122084685
:10CAF000FFF7A4FF08B1072824D107220221012053
:10CB0000FFF79CFF08B107281CD104220221002056
:10CB1000FFF794FF08B1072814D12368013323607D
:10CB2000E0E70B4A1368013B1360002BDAD1FFF7F3
:10CB3000B7FF0028D6D0074B1B68002BD2D0BDE82A
:10CB400010401847034B1B68002BE6D09847E4E7DA
:10CB5000A42A0020A02A002008B50020FFF788FFA3
:10CB600008B1062806D10120FFF782FF10B1062880
:10CB700008BF002008BD6DDF704776DF70477ADFA1
:10CB800070477CDF70477FDF70478FDF7047B1DF12
:10CB9000704733DF70477047014B01221A707047AE
:10CBA000C82C0020FDF7FCB908B50020FFF744FFB2
:10CBB00008B1FDF7F5F9FFF7CFFF08B1FDF7F0F980
:10CBC000FFF7E7FF18B1BDE80840FDF7E9B908BD78
:10CBD0000388212B13B504463FD022D8112B2BD02C
:10CBE000132B46D0102B1AD12A4B2B482B49C01A95
:10CBF000C008000440F00300FCF7E2FE0720FFF746
:10CC00001BFF08B1FDF7CCF9254BA18825481980F9
:10CC100001F06AFC08B1FDF7C3F900F07BFB02B03C
:10CC200010BD522B2DD0562B01D03B2BF7D1132109
:10CC3000A088FFF7A2FF17E0164B17481A49C01A41
:10CC4000C008000440F00300FCF7BAFE144B4FF696
:10CC5000FF721A8000F08EFBE1E7002301A98088B3
:10CC6000ADF80430FFF791FF0028D8D0FDF798F910
:10CC7000D5E70B4800231A4685210088FFF783FF7C
:10CC8000F2E7074800231A4619460088FFF77FFF9E
:10CC9000EAE700BF9CF60100CCF6010064FE01004B
:10CCA000FE220020D02C00206EFE01000D4B4A8891
:10CCB0001B889A4214D10A8840F677239A420FD1F2
:10CCC0008B88094A09480A49033B9BB21380094AE9
:10CCD000801AC00800041A4640F00300FCF77DBE2D
:10CCE000704700BFFE220020FC220020CCF601008D
:10CCF0007BFE01009CF6010008B503784BB9054B9B
:10CD00003B211888FFF739FF18B1BDE80840FDF74F
:10CD100047B908BDFE22002008B548B103280BD151
:10CD20000220FFF789FE38B1BDE80840FDF738B9A9
:10CD3000BDE80840FFF738BF08BD00000378012BAD
:10CD4000F7B534D01BB1022B31D003B0F0BD1A4C73
:10CD50001A4D20782844FDF721FC23780133DBB2FB
:10CD60001D44237015F8012C0A2A05D00D2A03D082
:10CD7000134A12889A42E8D8012B15D9114D0F4E4B
:10CD8000114F2378ADF806300DF106022B8831469D
:10CD9000384601F01BFD082806D01328F1D00528DD
:10CDA00002D008B1FDF7FCF800232370CDE74068FE
:10CDB000FDF7F6F8C9E700BF9C2B0020A82A002049
:10CDC000FC220020FE22002000230020012910B5B3
:10CDD00004D04CB254B1022916D010BD00224FF439
:10CDE00080410B48BDE81040FDF711BA00F0C2FACF
:10CDF0000748FDF724FA074B1B78002BEDD020469F
:10CE0000BDE81040FEF758B9024B01221A70E4E762
:10CE1000A82C0020C82C0020012808B509D058B142
:10CE2000022822D0FDF712FA08B1FDF7B9F8012067
:10CE300008BDFDF789F8F5E7FDF786F84FF0A04348
:10CE40004FF08072C3F80C254FF48052C3F80C25C4
:10CE5000D3F8502722F44032C3F85027D3F8502794
:10CE600042F40032C3F85027DCE79020FDF798F831
:10CE7000D8E7FDF795B8000008B50849084801F063
:10CE800052FA08B1FDF78CF8F721054801F05AFA7B
:10CE900018B1BDE80840FDF783B808BDADCC01006E
:10CEA000982C002070B58B4D0FCDB6B00BAC0FC4D5
:10CEB00095E80300884B894A07934FF4807384E810
:10CEC0000300CDE909230893854A072307A90BA886
:10CED000FDF70CFB08B1FDF763F8FDF75BF908B14E
:10CEE000FDF75EF840F2666201217E48FCF7C0FF64
:10CEF00008B1FDF755F8FDF711F808B1FDF750F846
:10CF0000794A7A480021FDF777F908B1FDF748F82A
:10CF1000FEF796F808B1FDF743F801F0D5FC08B12B
:10CF2000FDF73EF800230BA901200B9301F05AFDF9
:10CF300008B1FDF735F80BA801F022FE08B1FDF7A6
:10CF40002FF86B4C112320468DF81C30FFF713FE91
:10CF5000684B69486949C01A63780393A3780293C0
:10CF6000E378019323790093C00800046379A279E0
:10CF700040F00300FCF73BFD63780493A378039330
:10CF8000E378029323790193637900935C4A5D49C6
:10CF9000A3795D4801F0F1FE5B4801F070FF5A494A
:10CFA00082B207A8FFF7EDFD08B1FCF7F9FF0021F9
:10CFB00008220BA801F030FF54494FF0C8730BA8AA
:10CFC000CDE90B13FFF7DBFD08B1FCF7E9FFFFF735
:10CFD00053FF4F4B4F480B930BA901F073FA08B165
:10CFE000FCF7DEFF0021042207A801F015FF4A4BE1
:10CFF0004A48079307A901F073FB08B1FCF7D0FF7B
:10D00000AC2200210BA801F007FF02238DF82C3081
:10D010004FF4C063424AADF82E300123ADF87830AA
:10D020001F928DF8A83040220023CDE92D230BA9B3
:10D030003C4B3D48349300F0FAFC08B1FCF7B0FFDC
:10D040000121394800F0F0FC1C2200210BA801F05E
:10D05000E3FE00234FF4A032CDE90B32ADF83A30B5
:10D060004FF4F0228DF83C30304B0D921093032298
:10D070002F4B8DF838200BA8119300F07FFF08B1DB
:10D08000FCF78EFF0321284800F043FD08B1FCF7B0
:10D0900087FF00F08DF9274C204E4FF6FF7523884F
:10D0A000AB4210D000F02AF901280CD10BA800F0F7
:10D0B00011F92388ADF81C0007AA0BA9304601F02E
:10D0C00085FB00F021F9FCF711FB0028E7D1FDF703
:10D0D000CDFFE4E73CFE0100E32C0020012E002000
:10D0E0003DCD0100F022002099CB010098FE010007
:10D0F000DC2C00209CF60100CCF601009CFE010017
:10D10000BAFE010054FE0100E32D002010003C0097
:10D11000A5CB0100D02C002097CB010000230020DC
:10D12000F822002019CD0100A02B0020F9CC01002D
:10D1300073CE0100FE220020FFF700BC03782DE92A
:10D14000F0470746002B50D13F4E404C3578002D1C
:10D150004DD12846FFF746FC206008B1FCF720FFC0
:10D160003B490120FFF73CFB206008B1FCF718FFAA
:10D1700001233370374E78680121FFF78BFB206065
:10D1800008B1FCF70DFF7B68334AB3F90030138018
:10D190004FF4167213FB02F3002BB8BF03F6FF73B4
:10D1A0001B1303EB43035A0092B2328095BB2B4909
:10D1B0002B482C4E2A4FDFF8C4A001F0DEFD2A4B8D
:10D1C000F61AF608360446F001064FF00008B94694
:10D1D000484601F054FE80451ED3012D05D11D4A5D
:10D1E000938801339380214B1D80BDE8F087012097
:10D1F000FFF7F8FB206008B1FCF7D2FE1C490020C5
:10D20000FFF7EEFA206008B1FCF7CAFE0023337086
:10D21000184EB0E71849CBE73878FDF7D5F9024644
:10D22000206060B11128F7D030465146FCF7CCFBA6
:10D23000206820B1FCF7B4FE2368112BECD008F174
:10D2400001080137C4E700BF1E2F0020182F00205F
:10D250000D2F0020442F0020022F0020D4FE0100BB
:10D260004A2F0020CCF601009CF601001C2F002064
:10D27000042F0020462F0020E5FE0100F5FE0100EE
:10D28000104A08B50421002309201171D0711370D0
:10D2900053709370D370537113720B4A0B48117112
:10D2A0000121D1710A49137053709370D370537177
:10D2B0001372FFF751FA18B1BDE80840FCF770BED1
:10D2C00008BD00BF042F00200D2F0020C3FE010069
:10D2D0003DD1010013B5074A07499388009353884D
:10D2E0001288044601F049FD204601F0C8FD80B2D5
:10D2F00002B010BD442F0020C7FE0100014B18886A
:10D30000704700BF1C2F0020014B00221A8070477D
:10D310001C2F002008B54FF0A0434FF08072C3F8D7
:10D3200008254FF48052C3F808250E490020FFF766
:10D3300057FA08B1FCF734FE0B4B0C4800220121D0
:10D340001A70FFF7A7FA08B1FCF72AFE00224FF483
:10D3500000510748FCF75BFF18B1BDE80840FCF737
:10D360001FBE08BD042F00201E2F0020402F0020CC
:10D37000202F002008B50C4B1878FFF733FB08B1BD
:10D38000FCF70EFE0948FCF75AFF08B1FCF708FE4F
:10D390004FF0A0434FF08072C3F80C254FF4805239
:10D3A000C3F80C2508BD00BF1E2F0020202F002031
:10D3B00038B50F4D0F4B00242146062228461C800D
:10D3C00001F02AFD4FF0A04303222C716C71C3F8C9
:10D3D0006027C3F830274FF48052C3F80825FFF7C1
:10D3E0004FFF054A05480121BDE83840FCF704BF5E
:10D3F000442F00201C2F002039D10100D0FE010055
:10D400000369C1688B429DBF8268D21802F1FF3266
:10D4100003F1FF3394BF501A581A70472DE9F041B9
:10D42000D0E9027405463E1B406896422044884677
:10D43000144404D901F0C7FCEC60BDE8F081324629
:10D44000E41B01F0C0FC224608EB06016868F1E726
:10D450002DE9F843C5680646894617464FF000088F
:10D460003469B3687068A54228BFE418013C621BA8
:10D470005C1BBC4228BF3C46944228BF1446494628
:10D480002844224601F09FFCB3682544AB4208BF04
:10D4900000253F1BA044A144F560E1D14046BDE812
:10D4A000F8830000F8B5184C182300FB033503FB84
:10D4B00000402544C46A012C0F46164611D024B101
:10D4C000022C1BD000242046F8BD2846FFF798FF09
:10D4D000B042F8D3324639462846FFF79FFF34461C
:10D4E000F1E72846FFF78CFF8642344628BF044602
:10D4F000224639462846FFF791FFE4E72846BDE873
:10D50000F840FFF7A5BF00BFCC2F00206DDF7047AC
:10D5100079DF70477DDF704764DF70472DE9F04F9A
:10D5200085B000250E9CBDF83CB02788019180464F
:10D5300091469A462E46B8F80020B2420CDC3DB126
:10D540002288013AD21B92B2FF2A3BD80AF8072060
:10D55000002005B0BDE8F08FD8F8042052F826006E
:10D56000039000220DF10B0103A8FFF7D5FF00285F
:10D57000EFD19DF80B204A4522D12288002D14BFFF
:10D580000020022002EB0901014459451ADC45B98B
:10D59000013292B2019B22800AF8023022880132C5
:10D5A000228022880DF10B01524403A8FFF7B4FF3B
:10D5B0000028CED121889DF80B200A442280012525
:10D5C0000136B8E70C20C4E72DE9F341089CBDF80B
:10D5D00024501746CDE90045022206469846FFF73B
:10D5E0009DFF50B94346102239463046CDE90845E3
:10D5F00002B0BDE8F041FFF791BF02B0BDE8F08195
:10D600002DE9F04F00231688138090F82D3085B057
:10D6100007460D46144653B3082E01D80C2027E1C7
:10D6200002A8FFF773FF002840F022812388082218
:10D63000EA54238801339BB21B222380EA542088BA
:10D64000013080B2208006220DF10901284401F04A
:10D65000BAFB23889DF8082006339BB212F0FE0225
:10D6600018BF01222380EA54238801332380BB782A
:10D67000FBB123880433B342D0D802A8FFF748FF98
:10D68000002840F0F58023880322EA5423880133E0
:10D690009BB219222380EA542388BDF80820013365
:10D6A0009BB2E9182380EA54120A4A702388023395
:10D6B0002380FA789AB12388D91CB142AED80221CE
:10D6C000E954238801339BB201212380E954238844
:10D6D0000B449BB22380EA5423880B4423807A684E
:10D6E000AAB12388D91CB14298D8022192F900200E
:10D6F000E954238801339BB20A212380E95423880B
:10D7000001339BB22380EA542388013323803B8971
:10D71000002B40F0A1803B8A5BB1CDE900462B464F
:10D720000722032107F11000FFF74EFF002840F009
:10D730009F803B8B5BB1CDE900462B46152214211F
:10D7400007F11800FFF740FF002840F091803A6A87
:10D75000002A40F09080D7F82480B8F1000F30D034
:10D76000B8F804302188981C8A1C0244B2423FF663
:10D7700055AFFE283FF652AF03336B542388013375
:10D780009BB2FF222380EA54238801339BB223807B
:10D79000B8F80020EA54E918120A4A7020880230CA
:10D7A00080B22080B8F804205AB1D8F808100029B7
:10D7B0006BD0284401F007FB2388B8F804201344F9
:10D7C000238097F82C30002B40F09A80387800287E
:10D7D0004ED03B88012B58D0228802F1020CB44570
:10D7E0003FF61CAF012805D17B78023313449E42DB
:10D7F000FFF414AF023EB61AB6B202A905EB0C0054
:10D80000ADF80860FFF786FE90BB3978BDF80820B8
:10D81000022900F0BA807B78934202D3B24240F2F0
:10D82000B280012940F0B3809BB29E42C0F0AF802D
:10D83000ADF808300821BDF80830FE2B3FF6EEAEFB
:10D8400022880133AB542288013292B22280A9543B
:10D850002288134423800BE0CDE900462B460622A4
:10D86000022107F10800FFF7AFFE00283FF453AF95
:10D8700005B0BDE8F08FB4F800C00CF10603B34268
:10D880003FF6CCAE1188052901D80720F0E76FF4E8
:10D89000486E01EB0E039BB24FF27D3E7345F4D907
:10D8A0005388052BF1D96FF44860181880B2704581
:10D8B000EBD94FF6FF70814203D0834201D09942E9
:10D8C000E3D8052305F80C30238801339BB21221DD
:10D8D0002380E954238801339BB223801188E954C3
:10D8E000E818090A4170238802339BB223805288CA
:10D8F000EA54E918120A4A702388023323802AE77F
:10D90000BB6A002BC1D04FF000094FF00C0A4FF05A
:10D91000160B97F82C305FFA89F293427FF656AFD8
:10D92000B96A0AFB02F201EB0208B8F80430981C4D
:10D93000FE283FF673AE208803332B54238801332F
:10D940009BB2238005F803B0238801339BB2238068
:10D950008A5AEA54E918120A4A702088023080B2C2
:10D960002080B8F804205AB1D8F8081000298CD0CB
:10D97000284401F028FA2388B8F8042013442380AF
:10D9800009F10109C5E7092155E7B242FBD9ADF814
:10D9900008604FE770B5E0B14AB116880024B44280
:10D9A00003D305196D789D4208D0A14201D800200B
:10D9B0000FE0055D01352C44A4B2F0E7A142F6D991
:10D9C000005DA31C01389BB280B21C188C42EEDCB7
:10D9D000138070BD13B50023ADF8063013460DF16A
:10D9E00006020446FFF7D6FF10B1BDF8060020443A
:10D9F00002B010BD72DF704773DF704738B5012287
:10DA000004460D46B0F8D810D0F8D400FFF7E2FF76
:10DA100000B1057004F13C0204F1D40104F154009A
:10DA2000BDE83840FFF7E6BF80F830107047F8B522
:10DA300004460F46002968D0002866D091F87A3055
:10DA40001BB191F89830002B61D1D7F8A030042B8E
:10DA50005DD0D7F89C30042B59D007F178060FCE53
:10DA60004FF0000C251D84F802C00FC50FCE0FC566
:10DA700096E8070085E8070084F830C0D7F8A4309E
:10DA80006363D7F8A830A3634FF6FF7504F1D4039E
:10DA9000C4F8E430A4F8E8500722614604F1EA0033
:10DAA00001F0BAF923780BB984F85450224604F1F6
:10DAB00055011F25C4F8D410384622F8D85FFFF767
:10DAC0009FFD08BB224604F19301C4F8DC1007F166
:10DAD0003C0022F8E05FFFF793FDA8B9A369A4F822
:10DAE00048304FF480730125A4F8503063692064F6
:10DAF000014684F83C50636404F13C0204F1540094
:10DB0000FFF778FF00B92570F8BD0E20FCE707206D
:10DB1000FAE7F8B5077804460D46002F00F0F880C4
:10DB200000F1EA06A17007220021304601F074F9E5
:10DB3000E38813B1A378012B04D0E3794BB1A37828
:10DB4000022B06D1636BA3B1012284F8F1200820D7
:10DB50009847334604F1F00113F8012F12B98B42B4
:10DB6000FAD117466B1E032B51D8DFE803F0050BE3
:10DB70000F1284F8F130ECE7A3791BB194F824304C
:10DB800003B95FB9E3790BB1002F42D1237A002B9F
:10DB900041D1637A002B0CBF00250425636BA5706F
:10DBA000002B3AD0033D012D37D86279AAB394F8FF
:10DBB000F22092BB84F8F420012284F8F32007209D
:10DBC000984704F13C0518220021284601F024F969
:10DBD000E26A531E0121022B94F8243084F83C1091
:10DBE00028BF0A4684F8512033B1A36A5A1E022A7C
:10DBF00028BF0B4684F85230A278002384F85030B6
:10DC0000042A1BD8DFE802F06C0D223252000025F6
:10DC1000C4E70225C2E70325C0E7002384F8F330F8
:10DC2000CFE7C4F8E430C4E910630223012284F88A
:10DC30003C30802384F83120A4F84830A378002BAE
:10DC400051D1636B002B5FD100205CE0022384F88C
:10DC50003130032384F83C302369A4F84830002392
:10DC6000C4F8E430E36826646364E7E763696364E7
:10DC7000A369A4F848306379B3B194F8F2309BB942
:10DC800094F8F43083B1022384F850300421204604
:10DC9000FFF7B4FE0028D1D1052384F8313004F118
:10DCA000D403C4F8E430C9E70323F6E7E369636407
:10DCB000236AA4F84830637983B194F8F2306BB9E1
:10DCC00094F8F43053B1022384F8503004212046F4
:10DCD000FFF794FE0028B1D10623DEE70423DCE73A
:10DCE00084F83130AAE72A46D4F8E41004F154004D
:10DCF000FFF780FE38B994F8301094F85400FFF71D
:10DD00007BFE00289DD0F8BD94F8310098479BE732
:10DD10000820F8E70388112B10B50C460AD0262BF3
:10DD20001FD0102B05D1C37B012B02D18388A1F812
:10DD3000E83010BD0022838881F8F220B1F8E82095
:10DD40009A42F6D10B79002BF3D101212046FFF73F
:10DD5000E0FE0028EDD0A36B002BEAD0BDE8104018
:10DD60001847037A013B012BE3D889780523013159
:10DD7000B1FBF3F303EB8303C91AC9B2E6E775DF1E
:10DD8000704776DF70477ADF70477BDF70470000AF
:10DD9000034B1A8882420CBF18460020704700BF10
:10DDA00060300020024B9B6903B11847704700BFE9
:10DDB0004430002073B586B23046FFF7E9FF0446D1
:10DDC00070B1164D027A2B7B9A420BD200F10A01F8
:10DDD0003046FFF7D4FFE8B1112801D0FFF7E2FF8A
:10DDE00002B070BD002303722B7C43B13B2130464F
:10DDF000FFF7C7FF30F0080301D0FFF7D3FF6B69CF
:10DE0000002BEDD000228DF80420ADF8066001A8AB
:10DE10009847E5E7237A01332372E1E74430002095
:10DE200013B50B46497A0F4C024669B9D4E9011083
:10DE30001C7A002C18BF01465868FCF7E8F908B1B5
:10DE4000FFF7B0FF02B010BD002119726369002B0B
:10DE5000F8D00121ADF806008DF8041001A898470C
:10DE6000F0E700BF443000204B8802889A4213D864
:10DE700042889A4210D380888A8840F2F3139842ED
:10DE800094BF031AC31A934206D800F2F3109042CB
:10DE900034BF002001207047002070470388112BF9
:10DEA00070B5014648D002D8102B1ED070BD122B81
:10DEB00052D0502BFAD12F4BC288DB899A42F5D130
:10DEC000038A022BF2D186883046FFF761FF0546B0
:10DED0000028EBD001F1120000F079F930BB68683E
:10DEE000FCF7ADF90028E1D009E0C37B012BDDD1BF
:10DEF0004FF6FF70FFF74CFF054620B90420BDE840
:10DF00007040FFF74FBF1C4A8E88068000230372C3
:10DF10001368C5F80A300A30536843601031FFF7C0
:10DF2000A3FF144B6872DB89002BBFD12946304612
:10DF3000BDE87040FFF774BF8088FFF729FF0446F3
:10DF40000028B3D04068FCF77AF908B1FFF72AFF40
:10DF50004FF6FF732380A9E786883046FFF718FF46
:10DF600005460028A2D008310A30FFF77DFF68720D
:10DF7000DCE700BF4430002074300020F8B50646CE
:10DF800048B305460FCD154F3C460FC495E8070032
:10DF900084E807003068124C3C60B0B1FFF7F3FE34
:10DFA000C0B9326813682360536863600D480E4A35
:10DFB0004FF6FF7303800D4B40F8043F0021FCF740
:10DFC0001BF9002818BF032004E02046FFF7DDFE00
:10DFD0000028EBD0F8BD0E20FCE700BF4430002045
:10DFE0007430002060300020B5DD0100803000205A
:10DFF0000AB1FCF70FBDFCF716BD73B50191019C8A
:10E0000006466CB100252C46294601A8FCF715FDF3
:10E0100018B106EB440301349D800135142DF3D172
:10E020003046346002B070BD2DE9F0470388848823
:10E03000103B8CB005460A2B1FD8DFE803F0063FE3
:10E040001E1E1E1E1E1E1E5F4400314EB368DB43A3
:10E05000009371686846FCF719FD009901A8FFF765
:10E06000CCFF0DF108094FF00008019B984507D33C
:10E07000132C13D90420FBF793FF0CB0BDE8F087F5
:10E0800039F802AB00270137514606EB8700FCF751
:10E09000CAFC1E2FF7D108F10108E6E721461D480A
:10E0A000FCF7B8FC21461C48FCF7B4FCEB7B012BC9
:10E0B000E3D021461948FCF7ADFCDEE721461548C0
:10E0C000FCF7B1FCD9E7057A15482D09032D94BF5B
:10E0D000002201222146FFF78BFF022D94BF002270
:10E0E000012221460F48FFF783FF012D0E4894BF00
:10E0F000002201222146FFF77BFFBEE7037A002BB7
:10E10000BBD1427A0648C2F3C0022146F3E700BF02
:10E11000A0300020A8300020A4300020AC30002027
:10E12000B8300020B4300020B03000201328014661
:10E1300002D80248FCF781BC00207047A4300020C0
:10E1400010B50446FFF7F2FF002814BF2046142044
:10E1500010BD70B5054616460AB90E2070BD0023E5
:10E1600013600028F9D00368002BF6D0C38813F0A1
:10E1700003040FD10846FFF7E3FFC0B214280BD009
:10E180002B7983420AD9EB882A6800FB032333608A
:10E190002046E3E70720E1E70520DFE70420DDE78D
:10E1A000AADF7047002301380B70042806D8DFE887
:10E1B00000F00306080A0C0011230B70704721239E
:10E1C000FBE73123F9E71223F7E72223F5E700788D
:10E1D00000F001007047F0B58B7891B0002B0C4631
:10E1E00008BF01238DF80E3005460B88ADF80C30C2
:10E1F000002116466846032200F00EFE6946607C48
:10E20000FFF7D0FF0DF10101A07CFFF7CBFF9DF8D8
:10E210000230E27B62F3C303227C62F30413227BAD
:10E2200062F30003227D002A14BF0222012262F35E
:10E23000420300211C2209A88DF8023000F0ECFDF9
:10E24000637B13F0300F15D002AF03220021384654
:10E2500000F0E2FD0DF10901E07CFFF7A3FF1123BF
:10E260008DF808309DF80A300E97012262F34203C0
:10E270008DF80A30637B8DF824301422A37B8DF84F
:10E280002530002104A800F0C7FD03AB0493A38848
:10E29000ADF81C30A368CDF814D01BB1E288ADF8FE
:10E2A00018200893A369002B2ED001AF0322002170
:10E2B000384600F0B1FDA3691A88ADF82C205A88C1
:10E2C000187BADF82E2039465A680A920D97FFF751
:10E2D00069FFA3690DF10501587BFFF763FFA26990
:10E2E0009DF80630917A61F3C303D17A61F3041388
:10E2F000117A927B002A61F3000314BF02220122EB
:10E3000062F342038DF80630E36903B10C933346A0
:10E3100004AA09A92846FFF743FF11B0F0BDA5DF05
:10E320007047B5DF704758B14FF0F7130360FB2318
:10E330000371F723C3801723C160836000207047F7
:10E340000E20704730B1A1F11703E02B04D80180F3
:10E35000002070470E2070470720704713B5034612
:10E3600080880C4680B91A88112A60D00ED8102AED
:10E370003AD0A37A43B1E1880020FFF7D0FF00280C
:10E3800072D14FF48073638102B010BD3A2A53D02A
:10E39000552AEED1DB88C988A072172B38BF172306
:10E3A0008B4228BF0B462381FFF7BBFF60B1FCF710
:10E3B00037FF354A354B36499B1ADB081B040246AA
:10E3C00043F00100FBF700FBE37A002BD1D1E368B7
:10E3D000002BCED040F6772200922289ADF804209F
:10E3E000694620469847C4E7DB7B012B04BF0B88B6
:10E3F000CB80C98823898B42BBD20020FFF78FFFD7
:10E4000010B90123E372B4E7112802D10123A372EA
:10E41000AFE7FCF705FF1C4A1C4B1E499B1ADB08A3
:10E420001B04024643F00100FBF7CEFAA1E7F723F5
:10E43000CB8017238B609CE75B89CA88934228BFF7
:10E440001346172BCA6838BF17230B814AB1C97A04
:10E4500039B140F677210091ADF804306946204685
:10E4600090470023638184E711288DD0FCF7D8FE04
:10E47000054A064B07499B1ADB081B04024643F07A
:10E480000100FBF7A1FA7FE79CF60100F4F601001A
:10E4900051FF010020FF0100B0DF704766DF7047C9
:10E4A00010B5002104464088FFF7F8FF034608B97D
:10E4B000237210BD112801D10123F9E76368BDE87B
:10E4C0001040184760B159B10378DE2B0AD00B68B1
:10E4D0004360DE2303704FF6FF73438000207047D4
:10E4E0000E2070470820704728B10378DE2B04D136
:10E4F0004180002070470E20704708207047F0B51B
:10E50000054685B00C46F1B1E8B10B78DE2B1AD187
:10E5100082884B889A4204D10B7A13B10846FFF7E0
:10E52000BFFF2B88112B32D0512B0ED0012B0AD1DB
:10E530002B7A012B07D1A9886288914203D12372DB
:10E540002046FFF7ADFF05B0F0BDAE886388B3424B
:10E55000F9D1AF79022FF6D1AD7B2B1F022BF2D868
:10E5600000211022684600F057FC052D14BF4FF41F
:10E57000C0730023694630468DF80070ADF8043052
:10E58000FFF78AFF0028DED063689847DBE76388DF
:10E59000AA889A4204BF4FF6FF736380D3E7A8DFCF
:10E5A0007047ADDF7047AEDF704762DF704770B510
:10E5B00005468AB00C46002962D0002860D0038846
:10E5C000502B37D0572B72D0102B59D181886069CE
:10E5D000002601AA0196FFF7BCFD082231460DEB8B
:10E5E000020000F019FC022302AA2189A888CDF8B4
:10E5F0000CD00293FFF7D5FF002841D1A369002B6F
:10E600003ED00398FFF7E3FD002839D0019B0BB102
:10E6100001221A701822002104A800F0FDFB022339
:10E620008DF81030AB88ADF81830019B0594079336
:10E63000A36923E08188606902AAFFF78AFD182296
:10E64000002104A800F0E8FBAB88ADF81830218960
:10E65000EB88029A05949942079218D12E8A022ECD
:10E6600015D16AB105F11200FFF7B1FD029B48B167
:10E6700001221A708DF81060A3690BB104A89847A5
:10E680000AB070BD187003238DF81030F4E7A2892A
:10E690009A42F5D1A369002BF2D000228DF8102008
:10E6A00005F1120208922A8AADF82420E6E7818853
:10E6B000606902AAFFF74DFD01460028E0D1029BE8
:10E6C0001B78002BDCD0182204A800F0A5FB012346
:10E6D0008DF81030AB88ADF818300594029BA6E792
:10E6E000F0B5384B8FB002AA04460E4603F1100C69
:10E6F000174618685968154603C5083363452A4606
:10E70000F7D1002C5BD0002E59D03368A36121468D
:10E710003846FFF74AFF00284FD12246012512F85C
:10E72000023B8DF8063001A92846ADF80450FFF7EA
:10E7300036FF002841D10146202206A800F06CFBDC
:10E7400022460223ADF8183012F80C3B8DF81A302F
:10E75000BDF824301C4E6088079603F4734343F4DD
:10E7600040632B4306A9ADF824308DF829508DF86D
:10E770002A50FFF730FD00BB0146202206A800F01A
:10E780004BFB22460323ADF8183012F8043B8DF8FA
:10E790001A30BDF824306088079603F46F4343F4C1
:10E7A00080532B43ADF8243006A940F201138DF8B5
:10E7B0002950ADF82A30FFF70EFD0FB0F0BD0E2046
:10E7C000FBE700BF8DFF0100F4000100F0B50F462C
:10E7D00087B016461C46054618B301AA194640697B
:10E7E000FFF7B7FCD8B94FF6FF739C421BD0019BD3
:10E7F000CBB11B78CBB13388F42B18D8014610224B
:10E8000002A800F009FBAB88ADF8083002A901238B
:10E810002046CDE904678DF80A30FFF7C4FE07B043
:10E82000F0BD0E20FBE70520F9E70820F7E70720F9
:10E83000F5E710DF7047000013B504460949684644
:10E84000FCF794FC019808B902B010BDD0E9003182
:10E850002046984718B16846FCF792FCF2E7112071
:10E86000F2E700BFACFF010013B504460749684654
:10E87000FCF77CFC019B0BB902B010BD2046D3E92C
:10E88000002190476846FCF77BFCF3E7C4FF0100DA
:10E890000B4991F816335A09EC231341DB0706D5CF
:10E8A000084B9A683AB94FF480030B60704742F204
:10E8B0000200FBF775BB1A6842F480021A607047C9
:10E8C00000E100E068290020F7B5194F3C7864BBEF
:10E8D000184E012520463570FFF7AEFF112821D0D4
:10E8E0002046FFF7C1FF144B8DF8034018680190D4
:10E8F0000DF10300FBF790FE104901A8FFF799FF07
:10E900000446B0FA80F0400938709DF80300FBF728
:10E91000A7FE3CB90A4B34701C70FFF7B9FF2846BC
:10E92000FFF7A2FF204603B0F0BD0824FAE700BFBE
:10E930001D3100201C310020A5FF0100BD9F0100FA
:10E940001E310020014B1878704700BF1D31002098
:10E9500007B508496846FCF709FC019B13B903B0E9
:10E960005DF804FBD3E9002090476846FCF708FCFB
:10E97000F3E700BFB8FF0100FFF7EABF60DF7047B1
:10E9800069DF704761DF704730B5114DADF5017D2E
:10E990004FF4FA740DF1020103A8ADF80240FFF73D
:10E9A000F1FF70B9294601A8FCF7E0FB029B002BA0
:10E9B000F0D003A8D3E90021904701A8FCF7E0FBC1
:10E9C000F4E7052801D0FBF7EBFA0DF5017D30BD2A
:10E9D00048020200024B1B780BB1FFF7D5BF70470E
:10E9E0001F31002030B5054685B00C46002900F0E7
:10E9F000B2805A4B0B600C22002101A800F00CFAE7
:10EA000001238DF8063022688DF80450062301A9F1
:10EA10002020ADF80830FFF7B3FF60B1FCF700FC31
:10EA20004F4A504B50499B1ADB081B04024643F0E7
:10EA30000100FAF7C9FF0C22002101A800F0ECF94F
:10EA4000012322688DF8053001A94020FFF798FFC7
:10EA500060B1FCF7E5FB424A424B44499B1ADB0894
:10EA60001B04024643F00100FAF7AEFF0C2200211E
:10EA700001A800F0D1F9F72322688DF8045001A90C
:10EA80002320ADF80630FFF77BFF60B1FCF7C8FB31
:10EA9000334A344B36499B1ADB081B04024643F0C9
:10EAA0000100FAF791FF0C22002101A800F0B4F94F
:10EAB000012022688DF8040001A9FFF761FF60B111
:10EAC000FCF7AEFB264A274B2A499B1ADB081B049E
:10EAD000024643F00100FAF777FF0C22002101A85B
